{
  "contractName": "SimpleStorage",
  "abi": [
    {
      "inputs": [],
      "payable": false,
      "stateMutability": "nonpayable",
      "type": "constructor"
    },
    {
      "constant": true,
      "inputs": [
        {
          "internalType": "address",
          "name": "_address",
          "type": "address"
        }
      ],
      "name": "isAdmin",
      "outputs": [
        {
          "internalType": "bool",
          "name": "",
          "type": "bool"
        }
      ],
      "payable": false,
      "stateMutability": "view",
      "type": "function"
    },
    {
      "constant": true,
      "inputs": [
        {
          "internalType": "address",
          "name": "_address",
          "type": "address"
        }
      ],
      "name": "getTokens",
      "outputs": [
        {
          "internalType": "string",
          "name": "",
          "type": "string"
        }
      ],
      "payable": false,
      "stateMutability": "view",
      "type": "function"
    },
    {
      "constant": false,
      "inputs": [
        {
          "internalType": "address",
          "name": "_address",
          "type": "address"
        },
        {
          "internalType": "string",
          "name": "_token",
          "type": "string"
        }
      ],
      "name": "updateTokens",
      "outputs": [
        {
          "internalType": "string",
          "name": "",
          "type": "string"
        }
      ],
      "payable": false,
      "stateMutability": "nonpayable",
      "type": "function"
    },
    {
      "constant": true,
      "inputs": [
        {
          "internalType": "address",
          "name": "_address",
          "type": "address"
        }
      ],
      "name": "getDistributorInfo",
      "outputs": [
        {
          "components": [
            {
              "internalType": "string",
              "name": "location",
              "type": "string"
            },
            {
              "internalType": "string",
              "name": "longitude",
              "type": "string"
            },
            {
              "internalType": "string",
              "name": "latitude",
              "type": "string"
            },
            {
              "internalType": "uint256",
              "name": "vaccineCount",
              "type": "uint256"
            },
            {
              "internalType": "uint256",
              "name": "projectedVaccines",
              "type": "uint256"
            },
            {
              "internalType": "string",
              "name": "vaccineDeliveries",
              "type": "string"
            }
          ],
          "internalType": "struct SimpleStorage.distributor",
          "name": "",
          "type": "tuple"
        }
      ],
      "payable": false,
      "stateMutability": "view",
      "type": "function"
    },
    {
      "constant": true,
      "inputs": [
        {
          "internalType": "address",
          "name": "_address",
          "type": "address"
        }
      ],
      "name": "getClinicInfo",
      "outputs": [
        {
          "components": [
            {
              "internalType": "string",
              "name": "location",
              "type": "string"
            },
            {
              "internalType": "string",
              "name": "longitude",
              "type": "string"
            },
            {
              "internalType": "string",
              "name": "latitude",
              "type": "string"
            },
            {
              "internalType": "uint256",
              "name": "vaccineCount",
              "type": "uint256"
            },
            {
              "internalType": "string",
              "name": "requestedVaccines",
              "type": "string"
            },
            {
              "internalType": "string",
              "name": "vaccineDeliveries",
              "type": "string"
            }
          ],
          "internalType": "struct SimpleStorage.clinic",
          "name": "",
          "type": "tuple"
        }
      ],
      "payable": false,
      "stateMutability": "view",
      "type": "function"
    },
    {
      "constant": false,
      "inputs": [
        {
          "internalType": "address",
          "name": "_address",
          "type": "address"
        },
        {
          "internalType": "string",
          "name": "_longitude",
          "type": "string"
        },
        {
          "internalType": "string",
          "name": "_latitude",
          "type": "string"
        },
        {
          "internalType": "string",
          "name": "_location",
          "type": "string"
        },
        {
          "internalType": "uint256",
          "name": "_vaccineCount",
          "type": "uint256"
        },
        {
          "internalType": "uint256",
          "name": "_projectedVaccines",
          "type": "uint256"
        },
        {
          "internalType": "string",
          "name": "_vaccineDeliveries",
          "type": "string"
        }
      ],
      "name": "createDistributor",
      "outputs": [],
      "payable": false,
      "stateMutability": "nonpayable",
      "type": "function"
    },
    {
      "constant": false,
      "inputs": [
        {
          "internalType": "address",
          "name": "_address",
          "type": "address"
        },
        {
          "internalType": "string",
          "name": "_longitude",
          "type": "string"
        },
        {
          "internalType": "string",
          "name": "_latitude",
          "type": "string"
        },
        {
          "internalType": "string",
          "name": "_location",
          "type": "string"
        },
        {
          "internalType": "uint256",
          "name": "_vaccineCount",
          "type": "uint256"
        },
        {
          "internalType": "string",
          "name": "_requestVaccines",
          "type": "string"
        },
        {
          "internalType": "string",
          "name": "_vaccineDeliveries",
          "type": "string"
        }
      ],
      "name": "createClinic",
      "outputs": [],
      "payable": false,
      "stateMutability": "nonpayable",
      "type": "function"
    },
    {
      "constant": false,
      "inputs": [
        {
          "internalType": "address",
          "name": "_address",
          "type": "address"
        },
        {
          "internalType": "uint256",
          "name": "_vaccineCount",
          "type": "uint256"
        },
        {
          "internalType": "string",
          "name": "_requestVaccines",
          "type": "string"
        }
      ],
      "name": "updateClinicInventory",
      "outputs": [],
      "payable": false,
      "stateMutability": "nonpayable",
      "type": "function"
    },
    {
      "constant": false,
      "inputs": [
        {
          "internalType": "address",
          "name": "_address",
          "type": "address"
        },
        {
          "internalType": "uint256",
          "name": "_vaccineCount",
          "type": "uint256"
        },
        {
          "internalType": "uint256",
          "name": "_projectedVaccines",
          "type": "uint256"
        }
      ],
      "name": "updateDistributorInventory",
      "outputs": [],
      "payable": false,
      "stateMutability": "nonpayable",
      "type": "function"
    },
    {
      "constant": false,
      "inputs": [
        {
          "internalType": "address",
          "name": "_addressFrom",
          "type": "address"
        },
        {
          "internalType": "address",
          "name": "_addressTo",
          "type": "address"
        },
        {
          "internalType": "string",
          "name": "_vaccineDeliveries",
          "type": "string"
        }
      ],
      "name": "manageShipment",
      "outputs": [],
      "payable": false,
      "stateMutability": "nonpayable",
      "type": "function"
    }
  ],
  "bytecode": "0x6080604052737c0e53eeb5368bc36a17841e63b1815c0783a6ec6000806101000a81548173ffffffffffffffffffffffffffffffffffffffff021916908373ffffffffffffffffffffffffffffffffffffffff1602179055503480156200006557600080fd5b506040518060600160405280602e8152602001620021d5602e913960019080519060200190620000979291906200009e565b506200014d565b828054600181600116156101000203166002900490600052602060002090601f016020900481019282601f10620000e157805160ff191683800117855562000112565b8280016001018555821562000112579182015b8281111562000111578251825591602001919060010190620000f4565b5b50905062000121919062000125565b5090565b6200014a91905b80821115620001465760008160009055506001016200012c565b5090565b90565b612078806200015d6000396000f3fe608060405234801561001057600080fd5b506004361061009e5760003560e01c8063450efe2111610066578063450efe211461016b578063606990671461019b578063758e64ce146101cb57806377247d35146101e7578063ec08dcc1146102035761009e565b8063015e21e7146100a3578063109aaade146100bf57806313d7fbe7146100db57806324d7806c1461010b5780633d136f451461013b575b600080fd5b6100bd60048036036100b89190810190611ad3565b61021f565b005b6100d960048036036100d491908101906119bd565b61032b565b005b6100f560048036036100f091908101906118d9565b61044a565b6040516101029190611e97565b60405180910390f35b610125600480360361012091908101906118d9565b6107d7565b6040516101329190611e5a565b60405180910390f35b610155600480360361015091908101906118d9565b610841565b6040516101629190611eb9565b60405180910390f35b610185600480360361018091908101906118d9565b610b36565b6040516101929190611e75565b60405180910390f35b6101b560048036036101b09190810190611969565b610c6d565b6040516101c29190611e75565b60405180910390f35b6101e560048036036101e09190810190611902565b610d24565b005b61020160048036036101fc9190810190611c38565b610dd7565b005b61021d60048036036102189190810190611bd1565b611247565b005b6102276116ca565b6040518060c0016040528086815260200188815260200187815260200185815260200184815260200183815250905080600360008a73ffffffffffffffffffffffffffffffffffffffff1673ffffffffffffffffffffffffffffffffffffffff16815260200190815260200160002060008201518160000190805190602001906102b2929190611700565b5060208201518160010190805190602001906102cf929190611700565b5060408201518160020190805190602001906102ec929190611700565b50606082015181600301556080820151816004015560a082015181600501908051906020019061031d929190611700565b509050505050505050505050565b610333611780565b6040518060c0016040528086815260200188815260200187815260200185815260200184815260200183815250905080600260008a73ffffffffffffffffffffffffffffffffffffffff1673ffffffffffffffffffffffffffffffffffffffff16815260200190815260200160002060008201518160000190805190602001906103be929190611700565b5060208201518160010190805190602001906103db929190611700565b5060408201518160020190805190602001906103f8929190611700565b5060608201518160030155608082015181600401908051906020019061041f929190611700565b5060a082015181600501908051906020019061043c929190611700565b509050505050505050505050565b610452611780565b600260008373ffffffffffffffffffffffffffffffffffffffff1673ffffffffffffffffffffffffffffffffffffffff1681526020019081526020016000206040518060c0016040529081600082018054600181600116156101000203166002900480601f0160208091040260200160405190810160405280929190818152602001828054600181600116156101000203166002900480156105355780601f1061050a57610100808354040283529160200191610535565b820191906000526020600020905b81548152906001019060200180831161051857829003601f168201915b50505050508152602001600182018054600181600116156101000203166002900480601f0160208091040260200160405190810160405280929190818152602001828054600181600116156101000203166002900480156105d75780601f106105ac576101008083540402835291602001916105d7565b820191906000526020600020905b8154815290600101906020018083116105ba57829003601f168201915b50505050508152602001600282018054600181600116156101000203166002900480601f0160208091040260200160405190810160405280929190818152602001828054600181600116156101000203166002900480156106795780601f1061064e57610100808354040283529160200191610679565b820191906000526020600020905b81548152906001019060200180831161065c57829003601f168201915b5050505050815260200160038201548152602001600482018054600181600116156101000203166002900480601f0160208091040260200160405190810160405280929190818152602001828054600181600116156101000203166002900480156107255780601f106106fa57610100808354040283529160200191610725565b820191906000526020600020905b81548152906001019060200180831161070857829003601f168201915b50505050508152602001600582018054600181600116156101000203166002900480601f0160208091040260200160405190810160405280929190818152602001828054600181600116156101000203166002900480156107c75780601f1061079c576101008083540402835291602001916107c7565b820191906000526020600020905b8154815290600101906020018083116107aa57829003601f168201915b5050505050815250509050919050565b60008060009054906101000a900473ffffffffffffffffffffffffffffffffffffffff1673ffffffffffffffffffffffffffffffffffffffff168273ffffffffffffffffffffffffffffffffffffffff161415610837576001905061083c565b600090505b919050565b6108496116ca565b600360008373ffffffffffffffffffffffffffffffffffffffff1673ffffffffffffffffffffffffffffffffffffffff1681526020019081526020016000206040518060c0016040529081600082018054600181600116156101000203166002900480601f01602080910402602001604051908101604052809291908181526020018280546001816001161561010002031660029004801561092c5780601f106109015761010080835404028352916020019161092c565b820191906000526020600020905b81548152906001019060200180831161090f57829003601f168201915b50505050508152602001600182018054600181600116156101000203166002900480601f0160208091040260200160405190810160405280929190818152602001828054600181600116156101000203166002900480156109ce5780601f106109a3576101008083540402835291602001916109ce565b820191906000526020600020905b8154815290600101906020018083116109b157829003601f168201915b50505050508152602001600282018054600181600116156101000203166002900480601f016020809104026020016040519081016040528092919081815260200182805460018160011615610100020316600290048015610a705780601f10610a4557610100808354040283529160200191610a70565b820191906000526020600020905b815481529060010190602001808311610a5357829003601f168201915b505050505081526020016003820154815260200160048201548152602001600582018054600181600116156101000203166002900480601f016020809104026020016040519081016040528092919081815260200182805460018160011615610100020316600290048015610b265780601f10610afb57610100808354040283529160200191610b26565b820191906000526020600020905b815481529060010190602001808311610b0957829003601f168201915b5050505050815250509050919050565b60606000809054906101000a900473ffffffffffffffffffffffffffffffffffffffff1673ffffffffffffffffffffffffffffffffffffffff168273ffffffffffffffffffffffffffffffffffffffff161415610c2f5760018054600181600116156101000203166002900480601f016020809104026020016040519081016040528092919081815260200182805460018160011615610100020316600290048015610c235780601f10610bf857610100808354040283529160200191610c23565b820191906000526020600020905b815481529060010190602001808311610c0657829003601f168201915b50505050509050610c68565b6040518060400160405280600c81526020017f556e617574686f72697a6564000000000000000000000000000000000000000081525090505b919050565b60606000809054906101000a900473ffffffffffffffffffffffffffffffffffffffff1673ffffffffffffffffffffffffffffffffffffffff168373ffffffffffffffffffffffffffffffffffffffff161415610ce0578160019080519060200190610cda9291906117b6565b50610d1d565b6040518060400160405280600c81526020017f556e617574686f72697a656400000000000000000000000000000000000000008152509050610d1e565b5b92915050565b80600260008473ffffffffffffffffffffffffffffffffffffffff1673ffffffffffffffffffffffffffffffffffffffff1681526020019081526020016000206005019080519060200190610d7a9291906117b6565b5080600360008573ffffffffffffffffffffffffffffffffffffffff1673ffffffffffffffffffffffffffffffffffffffff1681526020019081526020016000206005019080519060200190610dd19291906117b6565b50505050565b610ddf6116ca565b6040518060c00160405280600360008773ffffffffffffffffffffffffffffffffffffffff1673ffffffffffffffffffffffffffffffffffffffff1681526020019081526020016000206000018054600181600116156101000203166002900480601f016020809104026020016040519081016040528092919081815260200182805460018160011615610100020316600290048015610ec05780601f10610e9557610100808354040283529160200191610ec0565b820191906000526020600020905b815481529060010190602001808311610ea357829003601f168201915b50505050508152602001600360008773ffffffffffffffffffffffffffffffffffffffff1673ffffffffffffffffffffffffffffffffffffffff1681526020019081526020016000206001018054600181600116156101000203166002900480601f016020809104026020016040519081016040528092919081815260200182805460018160011615610100020316600290048015610fa05780601f10610f7557610100808354040283529160200191610fa0565b820191906000526020600020905b815481529060010190602001808311610f8357829003601f168201915b50505050508152602001600360008773ffffffffffffffffffffffffffffffffffffffff1673ffffffffffffffffffffffffffffffffffffffff1681526020019081526020016000206002018054600181600116156101000203166002900480601f0160208091040260200160405190810160405280929190818152602001828054600181600116156101000203166002900480156110805780601f1061105557610100808354040283529160200191611080565b820191906000526020600020905b81548152906001019060200180831161106357829003601f168201915b50505050508152602001848152602001838152602001600360008773ffffffffffffffffffffffffffffffffffffffff1673ffffffffffffffffffffffffffffffffffffffff1681526020019081526020016000206005018054600181600116156101000203166002900480601f01602080910402602001604051908101604052809291908181526020018280546001816001161561010002031660029004801561116c5780601f106111415761010080835404028352916020019161116c565b820191906000526020600020905b81548152906001019060200180831161114f57829003601f168201915b5050505050815250905080600360008673ffffffffffffffffffffffffffffffffffffffff1673ffffffffffffffffffffffffffffffffffffffff16815260200190815260200160002060008201518160000190805190602001906111d2929190611700565b5060208201518160010190805190602001906111ef929190611700565b50604082015181600201908051906020019061120c929190611700565b50606082015181600301556080820151816004015560a082015181600501908051906020019061123d929190611700565b5090505050505050565b61124f611780565b6040518060c00160405280600260008773ffffffffffffffffffffffffffffffffffffffff1673ffffffffffffffffffffffffffffffffffffffff1681526020019081526020016000206000018054600181600116156101000203166002900480601f0160208091040260200160405190810160405280929190818152602001828054600181600116156101000203166002900480156113305780601f1061130557610100808354040283529160200191611330565b820191906000526020600020905b81548152906001019060200180831161131357829003601f168201915b50505050508152602001600260008773ffffffffffffffffffffffffffffffffffffffff1673ffffffffffffffffffffffffffffffffffffffff1681526020019081526020016000206001018054600181600116156101000203166002900480601f0160208091040260200160405190810160405280929190818152602001828054600181600116156101000203166002900480156114105780601f106113e557610100808354040283529160200191611410565b820191906000526020600020905b8154815290600101906020018083116113f357829003601f168201915b50505050508152602001600260008773ffffffffffffffffffffffffffffffffffffffff1673ffffffffffffffffffffffffffffffffffffffff1681526020019081526020016000206002018054600181600116156101000203166002900480601f0160208091040260200160405190810160405280929190818152602001828054600181600116156101000203166002900480156114f05780601f106114c5576101008083540402835291602001916114f0565b820191906000526020600020905b8154815290600101906020018083116114d357829003601f168201915b50505050508152602001848152602001838152602001600260008773ffffffffffffffffffffffffffffffffffffffff1673ffffffffffffffffffffffffffffffffffffffff1681526020019081526020016000206005018054600181600116156101000203166002900480601f0160208091040260200160405190810160405280929190818152602001828054600181600116156101000203166002900480156115dc5780601f106115b1576101008083540402835291602001916115dc565b820191906000526020600020905b8154815290600101906020018083116115bf57829003601f168201915b5050505050815250905080600260008673ffffffffffffffffffffffffffffffffffffffff1673ffffffffffffffffffffffffffffffffffffffff1681526020019081526020016000206000820151816000019080519060200190611642929190611700565b50602082015181600101908051906020019061165f929190611700565b50604082015181600201908051906020019061167c929190611700565b506060820151816003015560808201518160040190805190602001906116a3929190611700565b5060a08201518160050190805190602001906116c0929190611700565b5090505050505050565b6040518060c001604052806060815260200160608152602001606081526020016000815260200160008152602001606081525090565b828054600181600116156101000203166002900490600052602060002090601f016020900481019282601f1061174157805160ff191683800117855561176f565b8280016001018555821561176f579182015b8281111561176e578251825591602001919060010190611753565b5b50905061177c9190611836565b5090565b6040518060c001604052806060815260200160608152602001606081526020016000815260200160608152602001606081525090565b828054600181600116156101000203166002900490600052602060002090601f016020900481019282601f106117f757805160ff1916838001178555611825565b82800160010185558215611825579182015b82811115611824578251825591602001919060010190611809565b5b5090506118329190611836565b5090565b61185891905b8082111561185457600081600090555060010161183c565b5090565b90565b60008135905061186a81612007565b92915050565b600082601f83011261188157600080fd5b813561189461188f82611f08565b611edb565b915080825260208301602083018583830111156118b057600080fd5b6118bb838284611fb4565b50505092915050565b6000813590506118d38161201e565b92915050565b6000602082840312156118eb57600080fd5b60006118f98482850161185b565b91505092915050565b60008060006060848603121561191757600080fd5b60006119258682870161185b565b93505060206119368682870161185b565b925050604084013567ffffffffffffffff81111561195357600080fd5b61195f86828701611870565b9150509250925092565b6000806040838503121561197c57600080fd5b600061198a8582860161185b565b925050602083013567ffffffffffffffff8111156119a757600080fd5b6119b385828601611870565b9150509250929050565b600080600080600080600060e0888a0312156119d857600080fd5b60006119e68a828b0161185b565b975050602088013567ffffffffffffffff811115611a0357600080fd5b611a0f8a828b01611870565b965050604088013567ffffffffffffffff811115611a2c57600080fd5b611a388a828b01611870565b955050606088013567ffffffffffffffff811115611a5557600080fd5b611a618a828b01611870565b9450506080611a728a828b016118c4565b93505060a088013567ffffffffffffffff811115611a8f57600080fd5b611a9b8a828b01611870565b92505060c088013567ffffffffffffffff811115611ab857600080fd5b611ac48a828b01611870565b91505092959891949750929550565b600080600080600080600060e0888a031215611aee57600080fd5b6000611afc8a828b0161185b565b975050602088013567ffffffffffffffff811115611b1957600080fd5b611b258a828b01611870565b965050604088013567ffffffffffffffff811115611b4257600080fd5b611b4e8a828b01611870565b955050606088013567ffffffffffffffff811115611b6b57600080fd5b611b778a828b01611870565b9450506080611b888a828b016118c4565b93505060a0611b998a828b016118c4565b92505060c088013567ffffffffffffffff811115611bb657600080fd5b611bc28a828b01611870565b91505092959891949750929550565b600080600060608486031215611be657600080fd5b6000611bf48682870161185b565b9350506020611c05868287016118c4565b925050604084013567ffffffffffffffff811115611c2257600080fd5b611c2e86828701611870565b9150509250925092565b600080600060608486031215611c4d57600080fd5b6000611c5b8682870161185b565b9350506020611c6c868287016118c4565b9250506040611c7d868287016118c4565b9150509250925092565b611c9081611f7e565b82525050565b6000611ca182611f3f565b611cab8185611f5b565b9350611cbb818560208601611fc3565b611cc481611ff6565b840191505092915050565b6000611cda82611f34565b611ce48185611f4a565b9350611cf4818560208601611fc3565b611cfd81611ff6565b840191505092915050565b600060c0830160008301518482036000860152611d258282611ccf565b91505060208301518482036020860152611d3f8282611ccf565b91505060408301518482036040860152611d598282611ccf565b9150506060830151611d6e6060860182611e4b565b5060808301518482036080860152611d868282611ccf565b91505060a083015184820360a0860152611da08282611ccf565b9150508091505092915050565b600060c0830160008301518482036000860152611dca8282611ccf565b91505060208301518482036020860152611de48282611ccf565b91505060408301518482036040860152611dfe8282611ccf565b9150506060830151611e136060860182611e4b565b506080830151611e266080860182611e4b565b5060a083015184820360a0860152611e3e8282611ccf565b9150508091505092915050565b611e5481611faa565b82525050565b6000602082019050611e6f6000830184611c87565b92915050565b60006020820190508181036000830152611e8f8184611c96565b905092915050565b60006020820190508181036000830152611eb18184611d08565b905092915050565b60006020820190508181036000830152611ed38184611dad565b905092915050565b6000604051905081810181811067ffffffffffffffff82111715611efe57600080fd5b8060405250919050565b600067ffffffffffffffff821115611f1f57600080fd5b601f19601f8301169050602081019050919050565b600081519050919050565b600081519050919050565b600082825260208201905092915050565b600082825260208201905092915050565b6000611f7782611f8a565b9050919050565b60008115159050919050565b600073ffffffffffffffffffffffffffffffffffffffff82169050919050565b6000819050919050565b82818337600083830152505050565b60005b83811015611fe1578082015181840152602081019050611fc6565b83811115611ff0576000848401525b50505050565b6000601f19601f8301169050919050565b61201081611f6c565b811461201b57600080fd5b50565b61202781611faa565b811461203257600080fd5b5056fea365627a7a723158202af0312d4ae9b361b5454927ff23e9fbaad85fb35b11111e9afa234f6239d2716c6578706572696d656e74616cf564736f6c63430005100040516d566b766f504769396a76767578734844564a44677a50457a6167426157535a52596f52447a55323434486a5a",
  "source": "pragma solidity >=0.4.21 <0.7.0;\r\npragma experimental ABIEncoderV2;\r\n\r\ncontract SimpleStorage {\r\n    address admin = 0x7C0E53eEb5368BC36a17841E63b1815C0783A6Ec;\r\n    //Use ipfs to hash\r\n    string token;\r\n    \r\n    constructor() public {\r\n        token = \"QmVkvoPGi9jvvuxsHDVJDgzPEzagBaWSZRYoRDzU244HjZ\";\r\n    }\r\n    \r\n    // Keep this struct for ipfs\r\n    struct vaccineDelivery {\r\n        string locationTo;\r\n        string locationFrom;\r\n        address addressTo;\r\n        address addressFrom;\r\n        string sentOutDate;\r\n        string recivedDate;\r\n        uint amount;\r\n    }\r\n    \r\n    struct clinic {\r\n        string location;\r\n        string longitude;\r\n        string latitude;\r\n        uint vaccineCount;\r\n        string requestedVaccines;\r\n        string vaccineDeliveries;\r\n    }\r\n    \r\n    struct distributor {\r\n        string location;\r\n        string longitude;\r\n        string latitude;\r\n        uint vaccineCount;\r\n        uint projectedVaccines;\r\n        string vaccineDeliveries;\r\n    }\r\n    \r\n    mapping(address => clinic) clinics;\r\n    mapping(address => distributor) distributors;\r\n    \r\n    function isAdmin(address _address) public view returns (bool) {\r\n        if (_address == admin) {\r\n            return (true);\r\n        } else {\r\n            return (false);\r\n        }\r\n    }\r\n    \r\n    function getTokens(address _address) public view returns (string memory) {\r\n        if (_address == admin) {\r\n            return (token);\r\n        } else {\r\n            return (\"Unauthorized\");\r\n        }\r\n    }\r\n    \r\n    function updateTokens(address _address, string memory _token) public returns (string memory) {\r\n        if (_address == admin) {\r\n            token = _token;\r\n        } else {\r\n            return (\"Unauthorized\");\r\n        }\r\n    }\r\n    \r\n    function getDistributorInfo(address _address) public view returns (distributor memory){\r\n        return (distributors[_address]);\r\n    }\r\n    \r\n    function getClinicInfo(address _address) public view returns (clinic memory){\r\n        return (clinics[_address]);\r\n    }\r\n    \r\n    function createDistributor(address _address, string memory _longitude, string memory _latitude, string memory _location, uint _vaccineCount, uint _projectedVaccines, string memory _vaccineDeliveries) public {\r\n        distributor memory tempDistributor = distributor(_location, _longitude, _latitude, _vaccineCount, _projectedVaccines, _vaccineDeliveries);\r\n        distributors[_address] = tempDistributor;\r\n    }\r\n    \r\n    function createClinic(address _address, string memory _longitude, string memory _latitude, string memory _location, uint _vaccineCount, string memory _requestVaccines, string memory _vaccineDeliveries) public {\r\n        clinic memory tempClinic = clinic(_location, _longitude, _latitude, _vaccineCount, _requestVaccines, _vaccineDeliveries);\r\n        clinics[_address] = tempClinic;\r\n    }\r\n    \r\n    // mapping(address => bool) testMap;\r\n    // function test(address _address) public view returns (bool){\r\n    //     return(testMap[_address]);\r\n    // }\r\n    \r\n    function updateClinicInventory(address _address, uint _vaccineCount, string memory _requestVaccines) public {\r\n        clinic memory tempClinic = clinic(clinics[_address].location, clinics[_address].longitude, clinics[_address].latitude, _vaccineCount, _requestVaccines, clinics[_address].vaccineDeliveries);\r\n        clinics[_address] = tempClinic;\r\n    }\r\n    \r\n    function updateDistributorInventory(address _address, uint _vaccineCount, uint _projectedVaccines) public {\r\n        distributor memory tempDistributor = distributor(distributors[_address].location, distributors[_address].longitude, distributors[_address].latitude, _vaccineCount, _projectedVaccines, distributors[_address].vaccineDeliveries);\r\n        distributors[_address] = tempDistributor;\r\n    }\r\n    \r\n    function manageShipment(address _addressFrom, address _addressTo, string memory _vaccineDeliveries) public {\r\n        clinics[_addressTo].vaccineDeliveries = _vaccineDeliveries;\r\n        distributors[_addressFrom].vaccineDeliveries = _vaccineDeliveries;\r\n    }\r\n}\r\n",
  "sourcePath": "C:/code/HackTheNorth2020++/contracts/SimpleStorage.sol",
  "compiler": {
    "name": "solc",
    "version": "0.5.16+commit.9c3226ce.Emscripten.clang"
  },
  "schemaVersion": "3.3.3",
  "updatedAt": "2021-01-17T06:10:12.120Z",
  "networkType": "ethereum",
  "devdoc": {
    "methods": {}
  },
  "userdoc": {
    "methods": {}
  }
}